:100000000C9462010C94C4010C94A9010C94A901F4
:100010000C94A9010C94A9010C94AE0F0C94A901A5
:100020000C94A9010C94A9010C94A9010C94A901A8
:100030000C94A9010C94A9010C94EC0F0C94A90147
:100040000C94A9010C94A9010C9405140C94DA13D6
:100050000C94A9010C94A9010C94A9010C94A90178
:100060000C94A9010C94A9012F072F0759075907D0
:100070008D098D098D098D09B4078D099F089F0889
:1000800065098D098D097A09F1A1F1A22BA3283206
:100090000000000035021E021F022002210222027F
:1000A000230224022502260227022D022E022F02FD
:1000B0003002310229141A0815171C180C12132AC1
:1000C000C2041607090A0B0D0E0F3334E11D1B067F
:1000D00019051110363738C3E0E2E365C12C2CC096
:1000E0005051524F351E1F20212223242526274CF4
:1000F000010101010101012D2E2F3031014445681C
:10010000696A6B6C6D6E6F010101013901010101BA
:100110004A4E4B4DC6C7C8C9CACBCCCDCECFD04CAA
:1001200001010101010101D1D2D3D4D5013A3B3CF7
:100130003D3E3F40414243010101013901010101BE
:100140004A4E4B4D29B4B7B3B50101010101460137
:10015000010101010101010101010101010101018F
:10016000010101010101010101010101010101017F
:10017000F2F1F0F309023B0002010080FA090400E9
:1001800000010301010009210101000122400007D3
:1001900005810308000A09040100010300000009A9
:1001A00021010100012284000705830308000A05DC
:1001B000010902A10185010901A10005091901290F
:1001C00005150025017501950581027503950181CD
:1001D000030501093009311581257F7508950281D4
:1001E0000609381581257F35004500750895018180
:1001F00006050C0A38021581257F750895018106D0
:10020000C0C005010980A1018502150126B70019AA
:100210000129B7751095018100C0050C0901A101E4
:1002200085031501269C0219012A9C02751095016F
:100230008100C005010906A101750195080507198E
:10024000E029E715002501810295017508810395D4
:10025000057501050819012905910295017503919C
:100260000395067508150026FF000507190029FFEC
:100270008100C01201100100000008EDFE0C0A0010
:1002800001010200012C0366006500650067006C37
:10029000006500200056002D00550053004200204C
:1002A000006B006500790062006F006100720064FD
:1002B000000E0374002E006D002E006B002E000453
:1002C0000309040011241FBECFEFD8E0DEBFCDBF6D
:1002D00004B603FE27C08091CA029091CB02A09180
:1002E000CC02B091CD028730904BA740B04BD1F4F7
:1002F0001092CA021092CB021092CC021092CD0240
:1003000014BE84B7877F84BF0FB6F894A8958091F8
:100310006000886180936000109260000FBEE0E092
:10032000FCE3099511E0A0E0B1E0ECEAF8E202C0DC
:1003300005900D92A031B107D9F722E0A0E1B1E01C
:1003400001C01D92AA3CB207E1F70E94F9100C947B
:1003500054140C940000A82FB92F80E090E041E0E5
:1003600050EA609530E009C02D91822797958795D6
:1003700010F084279527305EC8F36F5FA8F30895C7
:10038000EADF8D939D930895CF93CFB7CF93DF93FB
:10039000C3954C9BE9F74C9B0BC04C9B09C04C9BF5
:1003A00007C04C9B05C04C9B03C04C9B01C08BC03D
:1003B0006F93C091A102DD27C855DD4F2F9365E5EE
:1003C0004C9B03C02F916F91E6CF0F931F934F93D8
:1003D00020E040E15F9309B1047104FB27F93F93EA
:1003E00050E03BE039C0147140642F77012F5F5F0C
:1003F0001EC0406819B114712F7752501FC040645D
:1004000009B12F770471D1F15F5F00C023C0406252
:1004100019B12F77147191F15F5F00C025C004718D
:100420001027515012F45D5F0000115027952C3FAA
:1004300019B1C8F614710127015027952C3FC8F651
:100440004227499309B1047110274F731150279522
:100450002C3FA8F64695469519B1147179F00127FD
:10046000015027952C3F98F66B5A60F3315009B133
:10047000B0F600C011E01CBB002719C03B503195FD
:10048000C31BD04011E01CBB0881033C09F10B34B5
:10049000F9F020919F021981110F1213EDCF4A81BB
:1004A000441F093651F10D3211F0013E29F7009336
:1004B000A6023F915F914F911F910F912F916F91E4
:1004C000CCB3C0FD65CFDF91CF91CFBFCF91189551
:1004D0002091A602222369F31091A4021123E9F5C9
:1004E0003430EAF13093A4022093A0021091A102CB
:1004F0003BE0311B3093A10232C00091A4020130D5
:1005000064F50AE54F7049F430910E0134FD28C0BE
:1005100000930E01C8E8D2E027C0433049F0309183
:10052000930234FD1DC000939302C4E9D2E01CC0C5
:100530003091BE0234FD14C00093BE02CFEBD2E076
:1005400013C0052710E000C000000BB91AC0052732
:1005500010E0221F1DC010E021C04AE502C032EDAC
:10056000432FC4E1D0E032E01AB114615C9A0BB1C0
:100570001AB954E120E865E320FF05270BB9279558
:1005800017951C3FF0F66695B8F7B1F720FF0527E1
:100590000BB9279517951C3FD0F62795179517FF90
:1005A000052700001C3F0BB9B0F629913A9519F7C1
:1005B0000B7E1091A502110FC651D0400BB911F05E
:1005C00010939F0211E01CBB00611AB11B7E402FEB
:1005D0004B7E54E05A95F1F70BB91AB94BB969CF74
:1005E00023982B988AB187798AB98BB187798BB98F
:1005F00008951092C1000E94F00284B1887E84B9EF
:1006000085B1876185B987B1807C87B988B18F63EF
:1006100088B98AB18C7F8AB98BB183608BB9A8E124
:10062000B1E011961C921E92E0E1F1E0118210827D
:1006300013961C921E9212971382128215961C9288
:100640001E9214971582148217961C921E9216976A
:10065000178216820895FF920F931F93CF93DF9313
:1006600000E111E0C0E0D1E085E0F82EC23051F0A9
:10067000C33059F0C13019F0569A5E9808C0559AA7
:100680005D9805C0539A5B9802C0239A2B988FE817
:1006900091E00197F1F700C0000083B181708D27D0
:1006A00090E0199903C062E070E002C060E070E081
:1006B000862B972B1A9903C064E070E002C060E0BB
:1006C00070E0862B972B309903C048E050E002C0C1
:1006D00040E050E0842B952B319903C020E130E0BD
:1006E00002C020E030E0822B932B329903C060E2FD
:1006F00070E002C060E070E0862B972B339903C056
:1007000040E450E002C040E050E0842B952B349947
:1007100003C020E830E002C020E030E0822B932BC1
:10072000359903C060E071E002C060E070E0862BA4
:10073000972B489903C040E052E002C040E050E0EF
:10074000842B952B499903C020E034E002C020E0BF
:1007500030E0822B932B1C9903C020E038E002C0CC
:1007600020E030E0822B932BF80120813181281783
:10077000390721F091838083F09200010E94F002FA
:10078000CF5F0E5F1F4FC43009F070CF8091000122
:10079000882361F1815080930001882339F08FE92B
:1007A0009FE00197F1F700C0000020C08091100188
:1007B0009091110190931901809318018091120179
:1007C0009091130190931B0180931A018091140161
:1007D0009091150190931D0180931C018091160149
:1007E0009091170190931F0180931E0181E0DF918A
:1007F000CF911F910F91FF900895E82FF0E0EE0F39
:10080000FF1FE85EFE4F808191810895089508954D
:1008100090932501809324010895E0912401F091A3
:100820002501309721F00190F081E02D099480E0BE
:100830000895E0912401F0912501309721F0028084
:10084000F381E02D09940895209122013091230134
:100850002817390771F09093230180932201E091CA
:100860002401F0912501309721F00680F781E02DD9
:10087000099408952091200130912101281739070A
:1008800071F09093210180932001E0912401F09177
:100890002501309721F00084F185E02D0994089519
:1008A0000E94D70F0C94F9022F923F924F925F92C1
:1008B0006F927F928F929F92AF92BF92CF92DF9270
:1008C000EF92FF920F931F93CF93DF9300D000D04E
:1008D0001F92CDB7DEB70E942B039FE2492E91E015
:1008E000592E27E2C22E21E0D22E00E010E066242D
:1008F0006394712C302E802F0E94FD037C01F20145
:10090000819091902F01882699268114910441F1BC
:10091000802F0E94FD035C0101978A219B21892B76
:1009200009F45CC0212C321005C02394F4E02F128E
:10093000FACF54C0822D0E94FD038A219B21892B6E
:10094000A1F38091820181FF08C0F601808191812D
:10095000E816F90611F00E940604F601F182E08221
:100960000F5F1F4FF2E0CF0ED11C0430110511F6BE
:100970008FEF89838A831B820E94E00F8160782F2A
:100980009D838C8349815A816B818D810E944B05A7
:100990000E949A0F0E940D0490912601891709F474
:1009A00060C00E940D04809326010F900F900F905D
:1009B0000F900F90DF91CF911F910F91FF90EF90CB
:1009C000DF90CF90BF90AF909F908F907F906F906F
:1009D0005F904F903F902F900C94AC0FF601F182F6
:1009E000E0828091820181FD0E94060480E090E017
:1009F0005301082E02C0AA0CBB1C0A94E2F7940112
:100A00002A213B21232B41F189833A82EA20FB20D2
:100A100081E0EF2809F480E08B830E94E00F816081
:100A2000782F9D838C8349815A816B818D810E94AF
:100A30004B0549815A816B817C818D810E949B0F7E
:100A4000000F111FF801E15DFE4F80819181A82602
:100A5000B926B182A0829CCF01968C30910541F6D7
:100A60007FCF0F900F900F900F900F90DF91CF914D
:100A70001F910F91FF90EF90DF90CF90BF90AF90BC
:100A80009F908F907F906F905F904F903F902F90AE
:100A900008950C940704CF93DF93CDB7DEB72B975F
:100AA0000FB6F894DEBF0FBECDBF942F4F83252F16
:100AB000588769877A878B874A855B85452B31F014
:100AC0002F3F31F481E09F3F19F403C081E001C062
:100AD00080E080FD07C04F81588569857A858B85C8
:100AE0000E949B0FDE01119686E0FD0111928A950E
:100AF000E9F785E0FE01379601900D928A95E1F7BE
:100B000049815A816B817C818D819E810E946B0C11
:100B10002B960FB6F894DEBF0FBECDBFDF91CF91FD
:100B20000895882309F4DFC08238A1F40E940D04DF
:100B300081FDD9C089E30E94FC0E0E94740F2FEF43
:100B400081EE94E0215080409040E1F700C0000029
:100B500089E315C08338B9F40E940D0480FDC3C039
:100B600083E50E94FC0E0E94740F2FEF81EE94E04B
:100B7000215080409040E1F700C0000083E50E94D2
:100B8000190F0C94740F8438A1F40E940D0482FD97
:100B9000AAC087E40E94FC0E0E94740F2FEF81EE22
:100BA00094E0215080409040E1F700C0000087E4CD
:100BB000E6CF9CEF980F913A18F40E94FC0EE1CF1B
:100BC00090E2980F983050F4877091E001C0990F2F
:100BD0008A95EAF7892F0E943A0FD3CF9BE5980FA9
:100BE000933070F4853A29F0863A31F083E890E04A
:100BF00005C081E890E002C082E890E00C942404F3
:100C000098E5980F953108F06EC0883A61F1893AFD
:100C100069F18A3A71F18B3A79F18C3A81F18D3A26
:100C200089F18E3A91F18F3A99F1813BA1F1803BA4
:100C3000A9F1823BB1F1833BB9F1843BC1F1853B22
:100C4000C9F1863BD1F1873BD9F1883BE1F1893B82
:100C5000E9F18A3BF1F18B3BF9F18C3B09F43FC0A0
:100C600080E090E03EC082EE90E03BC089EE90E0F4
:100C700038C08AEE90E035C085EB90E032C086EB5C
:100C800090E02FC083EB90E02CC084EB90E029C073
:100C900087EB90E026C08CEC90E023C08DEC90E0D8
:100CA00020C083E891E01DC08AE891E01AC082E983
:100CB00091E017C084E991E014C081E292E011C094
:100CC00083E292E00EC084E292E00BC085E292E003
:100CD00008C086E292E005C087E292E002C08AE2A4
:100CE00092E00C943A040895882309F466C082388F
:100CF000A1F40E940D0481FF60C089E30E94FC0EF4
:100D00000E94740F2FEF81EE94E0215080409040BC
:100D1000E1F700C0000089E315C08338B9F40E94F0
:100D20000D0480FF4AC083E50E94FC0E0E94740FF0
:100D30002FEF81EE94E0215080409040E1F700C019
:100D4000000083E50E94190F0C94740F8438A1F4FD
:100D50000E940D0482FF31C087E40E94FC0E0E94B5
:100D6000740F2FEF81EE94E0215080409040E1F726
:100D700000C0000087E4E6CF9CEF980F913A10F393
:100D800090E2980F983050F4877091E001C0990F6D
:100D90008A95EAF7892F0E94400FD6CF9BE5980FDE
:100DA000933020F480E090E00C942404885A85313C
:100DB00020F480E090E00C943A040895882321F018
:100DC0000E943A0F0C94740F0895882321F00E941A
:100DD000400F0C94740F0895CF92DF92EF92FF9220
:100DE0000F931F93CF93DF9300D000D01F92CDB706
:100DF000DEB76C0185E0F601DE01119601900D92DF
:100E00008A95E1F7F6012081818143815481452B48
:100E100031F08F3F31F491E02F3F19F403C091E09E
:100E200001C090E090FD79C2F601E280F580F29475
:100E30009FE0F92229838A8389819A810E94BB0ECF
:100E40008C010E94BA0E0E94CC0DE12FE295EF704A
:100E50008E2F90E0FC01EC5CFF4F0C944E14812F20
:100E6000807F1F70882311F01295107FEE2049F0CB
:100E7000112309F407C2812F0E944D0F0E94740FA5
:100E800001C2802F0E947406112309F446C2812FEB
:100E90000E94530F0F900F900F900F900F90DF91C3
:100EA000CF911F910F91FF90EF90DF90CF900C9416
:100EB000740F812F807F1F70803211F01295107F88
:100EC000002319F0013009F12BC0EE20A9F0FF201A
:100ED00059F1F1E0812FFF1228C00F900F900F9071
:100EE0000F900F90DF91CF911F910F91FF90EF9096
:100EF000DF90CF900C945D0FFF2021F081E0F81679
:100F000009F40BC20E94600F2DC0EE20E9F0E5E06D
:100F1000EF1508F402C20E94370F812329F022C086
:100F2000EE20F1F0F11015C0812F0F900F900F906F
:100F30000F900F90DF91CF911F910F91FF90EF9045
:100F4000DF90CF900C94DE06F4E0FF1508F4E5C1C5
:100F500009C0F601858180FF95C18F708583E4CF3C
:100F6000F110A3C1812F16C1812F837009F070C0C9
:100F7000E110D3C1202F229526952770220F220F32
:100F8000602F6F70862F90E0A0E0B0E06C017D01D3
:100F9000022E04C0CC0CDD1CEE1CFF1C0A94D2F700
:100FA00004FF12C08FE090E0A0E0B0E004C0880F22
:100FB000991FAA1FBB1F2A95D2F7BC01CD016095CE
:100FC00070958095909503C060E070E0CB01169518
:100FD000169513701230B1F040F56C297D298E29D9
:100FE0009F29113031F10F900F900F900F900F90BB
:100FF000DF91CF911F910F91FF90EF90DF90CF90F5
:101000000C94DF0D6C297D298E299F290F900F905C
:101010000F900F900F90DF91CF911F910F91FF9044
:10102000EF90DF90CF900C94F10D0E94DF0DC7017F
:10103000B6010F900F900F900F900F90DF91CF910E
:101040001F910F91FF90EF90DF90CF900C94CD0DFA
:10105000EE2019F0812F817001C08695882309F454
:101060005CC1202F229526952770220F220F602F1A
:101070006F70862F90E0A0E0B0E06C017D01022E41
:1010800004C0CC0CDD1CEE1CFF1C0A94D2F704FF3C
:1010900012C08FE090E0A0E0B0E004C0880F991F7C
:1010A000AA1FBB1F2A95D2F7BC01CD016095709590
:1010B0008095909503C060E070E0CB011695169581
:1010C00013701230B1F040F56C297D298E299F29CB
:1010D000113031F10F900F900F900F900F90DF9122
:1010E000CF911F910F91FF90EF90DF90CF900C94D4
:1010F000960E6C297D298E299F290F900F900F90B5
:101100000F900F90DF91CF911F910F91FF90EF9073
:10111000DF90CF900C94A80E0E94960EC701B601E6
:101120000F900F900F900F900F90DF91CF911F9124
:101130000F91FF90EF90DF90CF900C94840E003FC2
:10114000C1F128F480E4800F803250F096C0023F55
:1011500009F45EC008F449C0033F09F46CC08DC0B7
:10116000F02FF071FF2E812F8F71EE2051F00E9431
:101170001D0E802FFF2019F08295807FD6CE8F70B4
:10118000D4CE0E943E0E802FFF2019F08295807FE2
:1011900001C08F700F900F900F900F900F90DF9104
:1011A000CF911F910F91FF90EF90DF90CF900C9413
:1011B000E506EE20A9F084E08F1508F4AEC0812F7B
:1011C0008F710F900F900F900F900F90DF91CF9134
:1011D0001F910F91FF90EF90DF90CF900C94630ED2
:1011E000E5E0EF1508F499C0EACFEE2099F0812FE1
:1011F0008F710F900F900F900F900F90DF91CF9104
:101200001F910F91FF90EF90DF90CF900C941D0EE7
:10121000EE2069F3812F8F710F900F900F900F9038
:101220000F90DF91CF911F910F91FF90EF90DF9082
:10123000CF900C943E0EEE2089F0812F8F710F908D
:101240000F900F900F900F90DF91CF911F910F9102
:10125000FF90EF90DF90CF900C94080E0F900F90BE
:101260000F900F900F90DF91CF911F910F91FF90F2
:10127000EF90DF90CF900C94030EEE2099F0FF20BA
:1012800009F4B5CF802F0F900F900F900F900F9013
:10129000DF91CF911F910F91FF90EF90DF90CF9052
:1012A0000C949105FF2009F4B5CF802F0F900F907B
:1012B0000F900F900F90DF91CF911F910F91FF90A2
:1012C000EF90DF90CF900C947406412F4F70602FF9
:1012D000C6010E9427100F900F900F900F900F9053
:1012E000DF91CF911F910F91FF90EF90DF90CF9002
:1012F0000C94190D412F4F70602FC6010F900F9065
:101300000F900F900F90DF91CF911F910F91FF9051
:10131000EF90DF90CF900C942A100F900F900F90C9
:101320000F900F90DF91CF911F910F91FF90EF9051
:10133000DF90CF9008950E945A0F0E94290F0C94BD
:10134000740F0E944A0F0C949B090E94BB0E292F18
:1013500022952F702C3030F42A30A0F42250223005
:1013600030F021C02C30C9F02F30B9F01CC0853AC4
:1013700028F48430B0F4823028F413C090E2980F3F
:10138000983078F0883E30F4803E58F48450813AAA
:1013900050F407C0803F39F404C093FB882780F9DC
:1013A000089581E0089580E00895CF93DF9300D001
:1013B00000D01F92CDB7DEB70F900F900F900F9017
:1013C0000F90DF91CF910895CF93DF9300D000D09D
:1013D00000D0CDB7DEB726960FB6F894DEBF0FBEAD
:1013E000CDBFDF91CF9108951F93CF93DF93C0912D
:1013F000370116E080913801C81799F0D0E01C9FA2
:10140000F0011D9FF00D1124E75CFE4F40815181DA
:1014100062817381848195810E94E4092196C7705D
:10142000E9CFDF91CF911F910895409169015091CB
:101430006A0160916B0170916C0180916D019091D6
:101440006E010C94E409CF9380916E0182958F70A8
:1014500009F05FC080916B01882309F45AC0809124
:101460003701B091380170916901A0916A014091F2
:101470006C0150916D0191E07F3F09F090E0692F80
:10148000C6E08B1709F445C04115510521F0AF3F67
:1014900021F020E003C021E001C0262F90E020FDD4
:1014A00035C0C89FF001C99FF00D1124E75CFE4FC5
:1014B00021812A132BC02081271328C022812111CA
:1014C00025C0238134812417350710F421503109B8
:1014D000241B350B283C3105C8F420916E012F7078
:1014E000206120936E0126E0289FF001299FF00DD6
:1014F0001124E25CFE4F80818F708061808389E6D9
:1015000091E00E94EC06CF910C94F409019687704B
:10151000B8CFCF910895AF92BF92CF92DF92EF9262
:10152000FF920F931F93CF93DF93CDB7DEB76197F1
:101530000FB6F894DEBF0FBECDBF8C0185E0F80179
:10154000DE011D9601900D928A95E1F7D8014C912C
:1015500011965C9111971296EC903091690160910F
:101560006A0180916C0190916D01009731F06F3F9D
:1015700031F421E03F3F19F403C021E001C020E035
:10158000B22FB170BB2E20FD64C1F801C380D4809E
:10159000A0906B01AA2009F4C3C020916E01C81667
:1015A000D90628F0D601A81BB90BCD0104C080953F
:1015B00090958C0D9D1DFF24F394883C910580F03F
:1015C000F12C207F09F09CC07C2DD98AC88A6E2D11
:1015D00089890E94D50989E691E00E94EC06B4C091
:1015E000822F807F09F054C0561314C0431312C0D9
:1015F000FE2CE1100FC02F70206120936E010E941D
:10160000150A89E691E00E94EC0680916E01F801CE
:1016100085834FC1CD2831F05F3F31F481E04F3FEA
:1016200019F403C081E001C080E080FD03C081E0C7
:101630008E2502C080E090E0F82FF170FF2E80FF31
:101640001CC0809137012091380136E0821709F4DF
:101650000DC190E0389FF001399FF00D1124E75C37
:10166000FE4F6181561306C06081461303C062813C
:10167000E61203C001968770E9CFFE2CEE2009F434
:1016800018C180916E01816080936E01F12C11C1AF
:10169000561309C0431307C0E11005C080916E01C5
:1016A000F8018583B0C04D875E878D859E850E9439
:1016B000A509882379F1EE2069F120916E01822F2E
:1016C00082958F7090E0029774F0809169019091FB
:1016D0006A0198878F831986DB86CA862C87CE019C
:1016E00007960E94EC0686E0F801A9E6B1E00190B9
:1016F0000D928A95E1F70E94230A0E94150A0DC0F7
:10170000561761F14D875E878D859E850E94A509DC
:10171000811138C0C8010E94EC06FF24F394C9C0AF
:10172000C816D90608F446C0F601E81BF90BCF012C
:10173000883C910508F443C0F12C7C2DD98AC88AD5
:101740006E2D89890E94D509E9E6F1E086E0DF0186
:101750001D928A95E9F70E94150AABC04313D2CFB8
:10176000E110D0CF80916E01F8018583C8010E94FD
:10177000EC0686E0E9E6F1E0DF011D928A95E9F7E3
:10178000FA2C97C0EE2031F220916E01822F8295C3
:101790008F7090E002970CF4A6CF80916901909130
:1017A0006A019A8389831B82DD82CC822E83CE01DB
:1017B000019697CF809590958C0D9D1DB9CFFE2CED
:1017C000EE2009F4A7CF561333C0431331C0209144
:1017D0006E0120FD24C0822F82958F70482F50E02B
:1017E00041155105E1F0D80115962C9315974F300E
:1017F000510549F08F5F982F9295907F822F8F70BF
:10180000892B15968C93C8010E94EC0686E0F8019E
:10181000A9E6B1E001900D928A95E1F79CCF86E0B0
:10182000F801A9E6B1E001900D928A95E1F741C077
:101830004D875E878D859E850E94A509811153CFB6
:1018400080916E01816080936E01C8010E94EC0658
:1018500030C0EE2009F45ECF4D875E878D859E8572
:101860000E94A509882309F455CF3DCF4D875E8797
:101870008D859E850E94BB0E292F22952F702230C8
:1018800028F49F7039F0811105C00BC0243028F472
:101890009F7049F4805E883020F0C8010E94EC06F9
:1018A000BF2CFB2C06C0D80115969C91907F91F718
:1018B000F8CF8F2D61960FB6F894DEBF0FBECDBF67
:1018C000DF91CF911F910F91FF90EF90DF90CF901C
:1018D000BF90AF9008951F93CF93DF93CDB7DEB73E
:1018E0002C970FB6F894DEBF0FBECDBF4F8358873D
:1018F00069877A878B879C87CE0107960E948B0A1F
:101900008823D1F09F8188852A853B85232B31F060
:101910008F3F31F481E09F3F19F403C081E001C0A3
:1019200080E080FD47C04F81588569857A858B8529
:101930009C850E94E4093EC086E0FE013796DE01E8
:10194000119601900D928A95E1F7FF81E8856A85ED
:101950007B856115710531F0EF3F31F481E0FF3F88
:1019600019F403C081E001C080E080FD23C0209114
:10197000380130E0C90101968770992740913701FD
:1019800050E084179507F1F1F983EA837D836C8336
:1019900096E0929FD001939FB00D1124A75CBE4F9B
:1019A000FE01319601900D929A95E1F780933801EE
:1019B0000E94F40916E0809137019091380189174F
:1019C00071F1189FC0011124875C9E4F0E948B0A01
:1019D000882329F1E09137011E9FF0011124E75C73
:1019E000FE4F4081518162817381848195810E9483
:1019F000E4098091370190E00196877099278093E0
:101A00003701D9CF0E94A1091092380110923701F5
:101A1000E9E6F1E086E0DF011D928A95E9F72C9670
:101A20000FB6F894DEBF0FBECDBFDF91CF911F91EF
:101A30000895DF92EF92FF920F931F93CF93DF935E
:101A4000FC01892B09F488C0E12CF12CDD24D3940E
:101A5000EF0121968491853709F460C058F48437EA
:101A600008F04EC0843008F068C08130D1F0823078
:101A700071F172C0883709F45BC050F4863709F4FD
:101A800053C0873709F068C08E2D0E94470F52C09F
:101A90009CE7980F903708F05FC08F770E9474061C
:101AA0004EC08F010E5F1F4FFE01849190E2980F90
:101AB000983050F48770FD2D01C0FF0F8A95EAF72A
:101AC0008F2F0E944D0F15C00E94910514C08F01E9
:101AD0000E5F1F4FFE01849190E2980F983068F4DA
:101AE0008770FD2D01C0FF0F8A95EAF78F2F0E94A6
:101AF000530F0E94740FE80122C00E947406FBCFAE
:101B0000CF010296FE01C491CC2361F0EFE9FFE022
:101B10003197F1F700C00000C150F6CFCF01029617
:101B2000FE01F490EC010BC00E94370FE82E07C0B5
:101B30000E944A0F0E94740F02C00E9491058F2DCF
:101B4000882341F0EFE9FFE03197F1F700C0000092
:101B50008150F6CFFE017CCFDF91CF911F910F9185
:101B6000FF90EF90DF90089560937301709374017C
:101B700080937501909376010E94AA0F0C949B09A3
:101B800060936F0170937001809371019093720163
:101B90000E94AB0F0C949B0908950F931F93009123
:101BA0007301109174012091750130917601602BC1
:101BB000712B822B932B1F910F910C94B40D0F93CB
:101BC0001F93009173011091740120917501309160
:101BD000760160237123822393231F910F910C942C
:101BE000B40D0F931F930091730110917401209114
:101BF00075013091760160277127822793271F9105
:101C00000F910C94B40D60E070E0CB010C94C00D0A
:101C10000F931F9341E050E060E070E08A019B0168
:101C200004C0000F111F221F331F8A95D2F7C9016C
:101C3000B8011F910F910C94C00D0F931F9341E0B9
:101C400050E060E070E004C0440F551F661F771F2E
:101C50008A95D2F780916F0190917001A0917101E6
:101C6000B09172018A019B01082B192B2A2B3B2B67
:101C7000C901B8011F910F910C94C00D0F931F93D0
:101C800041E050E060E070E004C0440F551F661F63
:101C9000771F8A95D2F74095509560957095809101
:101CA0006F0190917001A0917101B09172018A0150
:101CB0009B01082319232A233B23C901B8011F9143
:101CC0000F910C94C00D0F931F9341E050E060E022
:101CD00070E004C0440F551F661F771F8A95D2F726
:101CE00080916F0190917001A0917101B09172018A
:101CF0008A019B01082719272A273B27C901B80118
:101D00001F910F910C94C00D0F931F9300916F01C1
:101D1000109170012091710130917201602B712B33
:101D2000822B932B1F910F910C94C00D0F931F9337
:101D300000916F0110917001209171013091720139
:101D400060237123822393231F910F910C94C00D64
:101D50000F931F9300916F011091700120917101F9
:101D60003091720160277127822793271F910F916D
:101D70000C94C00D0895CF92DF92EF92FF920F93D3
:101D80001F93CF93DF938C01C0906F01D0907001AF
:101D9000E0907101F0907201809173019091740153
:101DA000A0917501B0917601C82AD92AEA2AFB2AA6
:101DB000CFE1D0E0D701C6010C2E04C0B695A7959F
:101DC000979587950A94D2F780FF07C0B8018C2FAA
:101DD0000E9444108130910531F4219758F7B801E1
:101DE00080E00E944410DF91CF911F910F91FF90EE
:101DF000EF90DF90CF900895209101013091020182
:101E0000F90132969FEF40E05191851789F09F3F8D
:101E100019F4511101C0942F4F5F4630A9F79F3F2D
:101E200039F0F901E90FF11D97FDFA9582830895C4
:101E30000895E0910101F09102019F012A5F3F4F57
:101E40009281891301C012823196E217F307C1F71C
:101E5000089581E090E0E0910101F0910201E80F26
:101E6000F91F1082019688309105A9F70895809195
:101E70008101089590918101892B809381010895BA
:101E800080959091810189238093810108958093A9
:101E90008101089510928101089590918001892B0C
:101EA000809380010895809590918001892380938B
:101EB000800108951092800108958093770108951C
:101EC0001092770108958091010190910201FC0127
:101ED00031969C01285F3F4F80E0919191118F5F77
:101EE000E217F307D1F70895E0910101F0910201A3
:101EF000809181018083E0910101F0910201908144
:101F000080918001892B808380917701882361F003
:101F1000E0910101F09102019081892B80830E9460
:101F2000630F81111092770180910101909102015C
:101F30000C9419040895CF93DF9300D000D01F9222
:101F4000CDB7DEB70F900F900F900F900F90DF91ED
:101F5000CF910895089508950C9449051F920F920A
:101F60000FB60F9211248F939F93AF93BF938091DD
:101F70008301811113C08091840190918501A0910A
:101F80008601B09187014196A11DB11D8093840106
:101F900090938501A0938601B0938701BF91AF9183
:101FA0009F918F910F900FBE0F901F90189582E018
:101FB00084BD93E095BD9AEF97BD80936E00089520
:101FC0002FB7F8948091840190918501A0918601AA
:101FD000B09187012FBF08951F920F920FB60F92F5
:101FE00011248F939F93AF93BF938091840190911D
:101FF0008501A0918601B09187010196A11DB11DB7
:102000008093840190938501A0938601B09387010A
:10201000BF91AF919F918F910F900FBE0F901F9026
:10202000189587E090EBDC018093CA029093CB0275
:10203000A093CC02B093CD029CE088E10FB6F89457
:10204000A895809360000FBE90936000FFCF80E062
:1020500090E00895089520E3829FC0011124FC01BF
:102060002CE0729FE00DF11D1124E60FF11DEC54E0
:10207000FF4F84910895E82FF0E0EE0FFF1FE85F17
:10208000F0408591949108950E942B1090E4980F50
:10209000903218F40E943B1008958D3B50F4883A1A
:1020A000A0F5853A28F5843000F5813009F49DC00B
:1020B00099C0883E98F4803EC0F48F3B09F092C0EE
:1020C0000E94A1092FEF80E792E0215080409040CC
:1020D000E1F700C000000E94111084C0803F08F4A6
:1020E00081C0282F30E0306582C0282F30E07FC0CB
:1020F000853A29F0863A31F023E830E478C021E8C7
:1021000030E475C022E830E472C0883A61F1893A5F
:1021100069F18A3A71F18B3A79F18C3A81F18D3A11
:1021200089F18E3A91F18F3A99F1813BA1F1803B8F
:10213000A9F1823BB1F1833BB9F1843BC1F1853B0D
:10214000C9F1863BD1F1873BD9F1883BE1F1893B6D
:10215000E9F18A3BF1F18B3BF9F18C3B09F43FC08B
:1021600020E034E444C022EE34E441C029EE34E4FB
:102170003EC02AEE34E43BC025EB34E438C026EB05
:1021800034E435C023EB34E432C024EB34E42FC014
:1021900027EB34E42CC02CEC34E429C02DEC34E4DF
:1021A00026C023E835E423C02AE835E420C022E92C
:1021B00035E41DC024E935E41AC021E236E417C035
:1021C00023E236E414C024E236E411C025E236E40A
:1021D0000EC026E236E40BC027E236E408C02AE24D
:1021E00036E405C020E030E002C021E030E0C90163
:1021F000089580E8809361001092610060E072ECC5
:1022000081E090E00E94B1130E9450040E94D1111D
:102210000E9408040E949E13549A80E0815041F06D
:10222000A895EFE9FFE03197F1F700C00000F6CF85
:10223000549878940E9486128091A702882329F0EE
:102240008091930284FD0E9454040E949611F2CF63
:1022500080911A020895CF93DF9300D01F92CDB7DB
:10226000DEB720918A0130918B012817390789F058
:1022700090938B0180938A0123E029839B838A8337
:102280008091BE0284FF05C063E0CE0101960E94EA
:1022900082120F900F900F90DF91CF910895CF93FE
:1022A000DF9300D01F92CDB7DEB720918801309127
:1022B00089012817390789F0909389018093880153
:1022C00022E029839B838A838091BE0284FF05C01C
:1022D00063E0CE0101960E9482120F900F900F9042
:1022E000DF91CF910895CF93DF9300D000D000D03D
:1022F000CDB7DEB7FC0181E0898395E0DE0112965F
:1023000001900D929A95E1F78091BE0284FF05C07D
:1023100066E0CE0101960E94821226960FB6F894CE
:10232000DEBF0FBECDBFDF91CF91089580919302A4
:1023300084FF17C08091970190919801981789F0B8
:1023400028E0829FC001112468E087569E4F0E94BA
:102350007E128091970190E001968F70992780936B
:1023600097010895FC01A0919801B0E09D012F5FB5
:102370003F4F2F70332780919701821771F083E0D0
:10238000AA0FBB1F8A95E1F7A756BE4F98E00190B0
:102390000D929A95E1F7209398010E9486120C9471
:1023A000961183E091E00895FC018081807680326F
:1023B00081F58181813041F48FE891E09093A3020F
:1023C0008093A20288E00895823041F489E192E08E
:1023D0009093A3028093A20281E008958A3021F4B1
:1023E00083818093190215C0893099F48281938189
:1023F0008115924081F484819581892B61F481E07B
:1024000080938E018681978190938D0180938C01BA
:1024100002C080E008958FEF089520918C013091E3
:102420008D01232B71F020918E01213051F4FC019C
:10243000808180931A0210928D0110928C0181E0AC
:1024400008958FEF0895FC018381813261F082321B
:10245000D1F0823071F584E791E09093A3028093EC
:10246000A2028BE308958281882329F0813009F547
:102470008FE991E002C086E891E09093A3028093F7
:10248000A20289E0089584819581009751F0019717
:1024900081F48FEA91E09093A3028093A20284E8F2
:1024A000089583E392E09093A3028093A20280E4D4
:1024B000089580E008951F93CF93DF93162FEA01CC
:1024C000288124FF05C0398128E82327298302C0F9
:1024D0002AE52883FC019E012E5F3F4FD901912FF1
:1024E00081918D939150E1F7612FC9010E94C00144
:1024F0001C5F1883DF91CF911F91089543E952E04B
:102500000C945B124EEB52E00C945B12CF93DF9372
:102510006091A402635067FDBAC08091A102CCE033
:10252000D0E0C81BD109C855DD4F8091A0028D3283
:1025300009F09BC0683009F0A8C083EC8093880242
:102540008AE580930E0110921B028881807621F02B
:10255000CE010E94D41176C09A8110929102898195
:10256000811106C01092920221E932E082E065C03A
:10257000853019F49093A5025DC0863009F042C001
:102580008B81813041F483E792E09093A3028093A2
:10259000A20282E133C0823061F18330F1F4911103
:1025A00008C08FEB92E09093A3028093A20284E094
:1025B00025C0913041F481EB92E09093A302809387
:1025C000A2028EE01BC09230C1F485E892E09093A5
:1025D000A3028093A2028CE211C0813241F486E80A
:1025E00091E09093A3028093A20289E007C0823217
:1025F00021F4CE010E94231201C080E090E4909368
:102600001B0220C0883079F0893019F49093A7021A
:1026100011C08A3059F08B3069F48BE480939402B6
:102620008093BF0207C027EA32E002C021E932E00E
:1026300081E003C021E932E080E03093A3022093DF
:10264000A20209C08F3F39F4988197FD8E8190E8EE
:1026500090931B0207C09F81911104C09E8198171F
:1026600008F4892F80930D0110C080911B0287FF11
:102670000CC0CE010E940D128F3F21F48EE1809399
:102680000E0103C0811110920D011092A4028091DD
:102690000E0184FF46C080910D018F3F09F441C0B7
:1026A000C82F893008F0C8E08C1B80930D019091F1
:1026B000880288E8892780938802CC2329F18091B9
:1026C000A2029091A30220911B0226FF0AC0A9E852
:1026D000B2E0FC012C2F34913D9331962150D9F773
:1026E00008C0DC01E9E8F2E02C2F3D913193215044
:1026F000E1F72FEF2C0F30E02F5F3F4F820F931F3A
:102700009093A3028093A2026C2F89E892E00E942A
:10271000C001CC5FCC3019F08FEF80930D01C093D6
:102720000E0184E199B1947131F48150D9F710927E
:10273000A50210929F02DF91CF910895E9E6F0E0A3
:10274000808182608083E89AA3E9B2E08BE41196ED
:102750008C931197EEEBF2E081838AE58C93808372
:1027600008959B01AC01F89460E079E08DE390E07E
:102770000E942C14DA01C9010197A109B109B6958B
:10278000A795979587959093C5008093C40082E0A4
:102790008093C00088E98093C10086E08093C200E6
:1027A00010925E0210925F0210921C0210921D02A3
:1027B000789408951F920F920FB60F9211248F9361
:1027C0009F93EF93FF9390915F0280915E02981325
:1027D00004C088E98093C1000FC080915E028F5FC2
:1027E000883208F080E0E82FF0E0E05AFD4F908159
:1027F0009093C60080935E02FF91EF919F918F911D
:102800000F900FBE0F901F9018951F920F920FB64A
:102810000F9211242F938F939F93EF93FF93909197
:10282000C60080911D028F5F803408F080E0209107
:102830001C02821739F0E82FF0E0E25EFD4F908332
:1028400080931D02FF91EF919F918F912F910F9097
:102850000FBE0F901F901895A1E21A2EAA1BBB1B4A
:10286000FD010DC0AA1FBB1FEE1FFF1FA217B3075C
:10287000E407F50720F0A21BB30BE40BF50B661F72
:10288000771F881F991F1A9469F760957095809536
:1028900090959B01AC01BD01CF010895EE0FFF1F84
:0C28A0000590F491E02D0994F894FFCF0E
:1028AC000578012811B21173114F112B11FF5A0029
:00000001FF
